:020000001628C0
:0E000600831203132B088A002A0882000800C8
:1000140003208A110A128000840AAA0A0319AB0A6F
:08002400F003031D0A28080087
:10002C003F3083120313A0000630A1005B30A20006
:10003C004F30A3006630A4006D30A5007D30A600C3
:10004C000730A7007F30A8006F30A900AC01AD01CC
:10005C008316860183128601FF30831688000330D5
:10006C00FB000830FC007730FD00FD0B3B28FC0B3F
:10007C003B28FB0B3B288312081C5E280330FB003B
:10008C000830FC007730FD00FD0B4A28FC0B4A2899
:10009C00FB0B4A2880302D06F00080307002031DC7
:1000AC00592809302C0203185E28AC0A0319AD0A32
:1000BC00881C7B280330FB000830FC007730FD00E7
:1000CC00FD0B6628FC0B6628FB0B66288030F000C5
:1000DC0080302D067002031D75282C08003C031877
:1000EC007B280130AC02031CAD032C08203E84009D
:0800FC00000886003528812868
:02400E004A2F37
:00000001FF
